{
  "contractName": "HealthcarePlatform",
  "abi": [
    {
      "inputs": [
        {
          "internalType": "uint256",
          "name": "initialSupply",
          "type": "uint256"
        }
      ],
      "stateMutability": "nonpayable",
      "type": "constructor"
    },
    {
      "anonymous": false,
      "inputs": [
        {
          "indexed": true,
          "internalType": "address",
          "name": "patient",
          "type": "address"
        },
        {
          "indexed": true,
          "internalType": "address",
          "name": "grantee",
          "type": "address"
        }
      ],
      "name": "AccessGranted",
      "type": "event"
    },
    {
      "anonymous": false,
      "inputs": [
        {
          "indexed": true,
          "internalType": "address",
          "name": "patient",
          "type": "address"
        },
        {
          "indexed": true,
          "internalType": "address",
          "name": "grantee",
          "type": "address"
        }
      ],
      "name": "AccessRevoked",
      "type": "event"
    },
    {
      "anonymous": false,
      "inputs": [
        {
          "indexed": true,
          "internalType": "address",
          "name": "owner",
          "type": "address"
        },
        {
          "indexed": true,
          "internalType": "address",
          "name": "spender",
          "type": "address"
        },
        {
          "indexed": false,
          "internalType": "uint256",
          "name": "value",
          "type": "uint256"
        }
      ],
      "name": "Approval",
      "type": "event"
    },
    {
      "anonymous": false,
      "inputs": [
        {
          "indexed": true,
          "internalType": "address",
          "name": "patient",
          "type": "address"
        },
        {
          "indexed": false,
          "internalType": "string",
          "name": "ipfsHash",
          "type": "string"
        }
      ],
      "name": "HealthRecordStored",
      "type": "event"
    },
    {
      "anonymous": false,
      "inputs": [
        {
          "indexed": true,
          "internalType": "address",
          "name": "previousOwner",
          "type": "address"
        },
        {
          "indexed": true,
          "internalType": "address",
          "name": "newOwner",
          "type": "address"
        }
      ],
      "name": "OwnershipTransferred",
      "type": "event"
    },
    {
      "anonymous": false,
      "inputs": [
        {
          "indexed": true,
          "internalType": "address",
          "name": "from",
          "type": "address"
        },
        {
          "indexed": true,
          "internalType": "address",
          "name": "to",
          "type": "address"
        },
        {
          "indexed": false,
          "internalType": "uint256",
          "name": "value",
          "type": "uint256"
        }
      ],
      "name": "Transfer",
      "type": "event"
    },
    {
      "anonymous": false,
      "inputs": [
        {
          "indexed": true,
          "internalType": "address",
          "name": "user",
          "type": "address"
        },
        {
          "indexed": false,
          "internalType": "uint256",
          "name": "amount",
          "type": "uint256"
        }
      ],
      "name": "UserRewarded",
      "type": "event"
    },
    {
      "inputs": [
        {
          "internalType": "address",
          "name": "owner",
          "type": "address"
        },
        {
          "internalType": "address",
          "name": "spender",
          "type": "address"
        }
      ],
      "name": "allowance",
      "outputs": [
        {
          "internalType": "uint256",
          "name": "",
          "type": "uint256"
        }
      ],
      "stateMutability": "view",
      "type": "function",
      "constant": true
    },
    {
      "inputs": [
        {
          "internalType": "address",
          "name": "spender",
          "type": "address"
        },
        {
          "internalType": "uint256",
          "name": "amount",
          "type": "uint256"
        }
      ],
      "name": "approve",
      "outputs": [
        {
          "internalType": "bool",
          "name": "",
          "type": "bool"
        }
      ],
      "stateMutability": "nonpayable",
      "type": "function"
    },
    {
      "inputs": [
        {
          "internalType": "address",
          "name": "account",
          "type": "address"
        }
      ],
      "name": "balanceOf",
      "outputs": [
        {
          "internalType": "uint256",
          "name": "",
          "type": "uint256"
        }
      ],
      "stateMutability": "view",
      "type": "function",
      "constant": true
    },
    {
      "inputs": [],
      "name": "decimals",
      "outputs": [
        {
          "internalType": "uint8",
          "name": "",
          "type": "uint8"
        }
      ],
      "stateMutability": "view",
      "type": "function",
      "constant": true
    },
    {
      "inputs": [
        {
          "internalType": "address",
          "name": "spender",
          "type": "address"
        },
        {
          "internalType": "uint256",
          "name": "subtractedValue",
          "type": "uint256"
        }
      ],
      "name": "decreaseAllowance",
      "outputs": [
        {
          "internalType": "bool",
          "name": "",
          "type": "bool"
        }
      ],
      "stateMutability": "nonpayable",
      "type": "function"
    },
    {
      "inputs": [
        {
          "internalType": "address",
          "name": "spender",
          "type": "address"
        },
        {
          "internalType": "uint256",
          "name": "addedValue",
          "type": "uint256"
        }
      ],
      "name": "increaseAllowance",
      "outputs": [
        {
          "internalType": "bool",
          "name": "",
          "type": "bool"
        }
      ],
      "stateMutability": "nonpayable",
      "type": "function"
    },
    {
      "inputs": [],
      "name": "name",
      "outputs": [
        {
          "internalType": "string",
          "name": "",
          "type": "string"
        }
      ],
      "stateMutability": "view",
      "type": "function",
      "constant": true
    },
    {
      "inputs": [],
      "name": "owner",
      "outputs": [
        {
          "internalType": "address",
          "name": "",
          "type": "address"
        }
      ],
      "stateMutability": "view",
      "type": "function",
      "constant": true
    },
    {
      "inputs": [],
      "name": "renounceOwnership",
      "outputs": [],
      "stateMutability": "nonpayable",
      "type": "function"
    },
    {
      "inputs": [],
      "name": "symbol",
      "outputs": [
        {
          "internalType": "string",
          "name": "",
          "type": "string"
        }
      ],
      "stateMutability": "view",
      "type": "function",
      "constant": true
    },
    {
      "inputs": [],
      "name": "totalSupply",
      "outputs": [
        {
          "internalType": "uint256",
          "name": "",
          "type": "uint256"
        }
      ],
      "stateMutability": "view",
      "type": "function",
      "constant": true
    },
    {
      "inputs": [
        {
          "internalType": "address",
          "name": "to",
          "type": "address"
        },
        {
          "internalType": "uint256",
          "name": "amount",
          "type": "uint256"
        }
      ],
      "name": "transfer",
      "outputs": [
        {
          "internalType": "bool",
          "name": "",
          "type": "bool"
        }
      ],
      "stateMutability": "nonpayable",
      "type": "function"
    },
    {
      "inputs": [
        {
          "internalType": "address",
          "name": "from",
          "type": "address"
        },
        {
          "internalType": "address",
          "name": "to",
          "type": "address"
        },
        {
          "internalType": "uint256",
          "name": "amount",
          "type": "uint256"
        }
      ],
      "name": "transferFrom",
      "outputs": [
        {
          "internalType": "bool",
          "name": "",
          "type": "bool"
        }
      ],
      "stateMutability": "nonpayable",
      "type": "function"
    },
    {
      "inputs": [
        {
          "internalType": "address",
          "name": "newOwner",
          "type": "address"
        }
      ],
      "name": "transferOwnership",
      "outputs": [],
      "stateMutability": "nonpayable",
      "type": "function"
    },
    {
      "inputs": [
        {
          "internalType": "string",
          "name": "_ipfsHash",
          "type": "string"
        }
      ],
      "name": "storeHealthRecord",
      "outputs": [],
      "stateMutability": "nonpayable",
      "type": "function"
    },
    {
      "inputs": [],
      "name": "getHealthRecords",
      "outputs": [
        {
          "components": [
            {
              "internalType": "string",
              "name": "ipfsHash",
              "type": "string"
            },
            {
              "internalType": "uint256",
              "name": "timestamp",
              "type": "uint256"
            }
          ],
          "internalType": "struct HealthcarePlatform.HealthRecord[]",
          "name": "",
          "type": "tuple[]"
        }
      ],
      "stateMutability": "view",
      "type": "function",
      "constant": true
    },
    {
      "inputs": [
        {
          "internalType": "address",
          "name": "_grantee",
          "type": "address"
        }
      ],
      "name": "grantAccess",
      "outputs": [],
      "stateMutability": "nonpayable",
      "type": "function"
    },
    {
      "inputs": [
        {
          "internalType": "address",
          "name": "_grantee",
          "type": "address"
        }
      ],
      "name": "revokeAccess",
      "outputs": [],
      "stateMutability": "nonpayable",
      "type": "function"
    },
    {
      "inputs": [
        {
          "internalType": "address",
          "name": "_user",
          "type": "address"
        },
        {
          "internalType": "uint256",
          "name": "_amount",
          "type": "uint256"
        }
      ],
      "name": "rewardUser",
      "outputs": [],
      "stateMutability": "nonpayable",
      "type": "function"
    }
  ],
  "bytecode": "0x60806040523480156200001157600080fd5b50604051620027133803806200271383398181016040528101906200003791906200041d565b6040518060400160405280600b81526020017f4865616c7468546f6b656e0000000000000000000000000000000000000000008152506040518060400160405280600381526020017f484c5400000000000000000000000000000000000000000000000000000000008152508160039080519060200190620000bb92919062000356565b508060049080519060200190620000d492919062000356565b505050620000f7620000eb6200011060201b60201c565b6200011860201b60201c565b620001093382620001de60201b60201c565b506200060f565b600033905090565b6000600560009054906101000a900473ffffffffffffffffffffffffffffffffffffffff16905081600560006101000a81548173ffffffffffffffffffffffffffffffffffffffff021916908373ffffffffffffffffffffffffffffffffffffffff1602179055508173ffffffffffffffffffffffffffffffffffffffff168173ffffffffffffffffffffffffffffffffffffffff167f8be0079c531659141344cd1fd0a4f28419497f9722a3daafe3b4186f6b6457e060405160405180910390a35050565b600073ffffffffffffffffffffffffffffffffffffffff168273ffffffffffffffffffffffffffffffffffffffff16141562000251576040517f08c379a0000000000000000000000000000000000000000000000000000000008152600401620002489062000481565b60405180910390fd5b62000265600083836200034c60201b60201c565b8060026000828254620002799190620004d1565b92505081905550806000808473ffffffffffffffffffffffffffffffffffffffff1673ffffffffffffffffffffffffffffffffffffffff168152602001908152602001600020600082825401925050819055508173ffffffffffffffffffffffffffffffffffffffff16600073ffffffffffffffffffffffffffffffffffffffff167fddf252ad1be2c89b69c2b068fc378daa952ba7f163c4a11628f55a4df523b3ef836040516200032c9190620004a3565b60405180910390a362000348600083836200035160201b60201c565b5050565b505050565b505050565b828054620003649062000538565b90600052602060002090601f016020900481019282620003885760008555620003d4565b82601f10620003a357805160ff1916838001178555620003d4565b82800160010185558215620003d4579182015b82811115620003d3578251825591602001919060010190620003b6565b5b509050620003e39190620003e7565b5090565b5b8082111562000402576000816000905550600101620003e8565b5090565b6000815190506200041781620005f5565b92915050565b6000602082840312156200043057600080fd5b6000620004408482850162000406565b91505092915050565b600062000458601f83620004c0565b91506200046582620005cc565b602082019050919050565b6200047b816200052e565b82525050565b600060208201905081810360008301526200049c8162000449565b9050919050565b6000602082019050620004ba600083018462000470565b92915050565b600082825260208201905092915050565b6000620004de826200052e565b9150620004eb836200052e565b9250827fffffffffffffffffffffffffffffffffffffffffffffffffffffffffffffffff038211156200052357620005226200056e565b5b828201905092915050565b6000819050919050565b600060028204905060018216806200055157607f821691505b602082108114156200056857620005676200059d565b5b50919050565b7f4e487b7100000000000000000000000000000000000000000000000000000000600052601160045260246000fd5b7f4e487b7100000000000000000000000000000000000000000000000000000000600052602260045260246000fd5b7f45524332303a206d696e7420746f20746865207a65726f206164647265737300600082015250565b62000600816200052e565b81146200060c57600080fd5b50565b6120f4806200061f6000396000f3fe608060405234801561001057600080fd5b50600436106101215760003560e01c806385e68531116100ad578063c97ef5be11610071578063c97ef5be1461031e578063dd62ed3e1461033a578063e4e103dc1461036a578063f2fde38b14610386578063f4080e60146103a257610121565b806385e68531146102665780638da5cb5b1461028257806395d89b41146102a0578063a457c2d7146102be578063a9059cbb146102ee57610121565b806323b872dd116100f457806323b872dd146101ae578063313ce567146101de57806339509351146101fc57806370a082311461022c578063715018a61461025c57610121565b806306fdde0314610126578063095ea7b3146101445780630ae5e7391461017457806318160ddd14610190575b600080fd5b61012e6103c0565b60405161013b9190611961565b60405180910390f35b61015e60048036038101906101599190611588565b610452565b60405161016b9190611946565b60405180910390f35b61018e600480360381019061018991906114d4565b610475565b005b610198610567565b6040516101a59190611ae3565b60405180910390f35b6101c860048036038101906101c39190611539565b610571565b6040516101d59190611946565b60405180910390f35b6101e66105a0565b6040516101f39190611afe565b60405180910390f35b61021660048036038101906102119190611588565b6105a9565b6040516102239190611946565b60405180910390f35b610246600480360381019061024191906114d4565b6105e0565b6040516102539190611ae3565b60405180910390f35b610264610628565b005b610280600480360381019061027b91906114d4565b61063c565b005b61028a61072e565b6040516102979190611909565b60405180910390f35b6102a8610758565b6040516102b59190611961565b60405180910390f35b6102d860048036038101906102d39190611588565b6107ea565b6040516102e59190611946565b60405180910390f35b61030860048036038101906103039190611588565b610861565b6040516103159190611946565b60405180910390f35b610338600480360381019061033391906115c4565b610884565b005b610354600480360381019061034f91906114fd565b610981565b6040516103619190611ae3565b60405180910390f35b610384600480360381019061037f9190611588565b610a08565b005b6103a0600480360381019061039b91906114d4565b610ab8565b005b6103aa610b3c565b6040516103b79190611924565b60405180910390f35b6060600380546103cf90611cc2565b80601f01602080910402602001604051908101604052809291908181526020018280546103fb90611cc2565b80156104485780601f1061041d57610100808354040283529160200191610448565b820191906000526020600020905b81548152906001019060200180831161042b57829003601f168201915b5050505050905090565b60008061045d610d7a565b905061046a818585610d82565b600191505092915050565b6001600760003373ffffffffffffffffffffffffffffffffffffffff1673ffffffffffffffffffffffffffffffffffffffff16815260200190815260200160002060008373ffffffffffffffffffffffffffffffffffffffff1673ffffffffffffffffffffffffffffffffffffffff16815260200190815260200160002060006101000a81548160ff0219169083151502179055508073ffffffffffffffffffffffffffffffffffffffff163373ffffffffffffffffffffffffffffffffffffffff167f9f520b3bfc56d06f7065d10b4683b3f57ac8895d5026cd176dee95ce1454cb8d60405160405180910390a350565b6000600254905090565b60008061057c610d7a565b9050610589858285610f4d565b610594858585610fd9565b60019150509392505050565b60006012905090565b6000806105b4610d7a565b90506105d58185856105c68589610981565b6105d09190611bd5565b610d82565b600191505092915050565b60008060008373ffffffffffffffffffffffffffffffffffffffff1673ffffffffffffffffffffffffffffffffffffffff168152602001908152602001600020549050919050565b610630611251565b61063a60006112cf565b565b6000600760003373ffffffffffffffffffffffffffffffffffffffff1673ffffffffffffffffffffffffffffffffffffffff16815260200190815260200160002060008373ffffffffffffffffffffffffffffffffffffffff1673ffffffffffffffffffffffffffffffffffffffff16815260200190815260200160002060006101000a81548160ff0219169083151502179055508073ffffffffffffffffffffffffffffffffffffffff163373ffffffffffffffffffffffffffffffffffffffff167f825c8be24eb0df19500f63e86c29e7d0d951e73056b889b891d85e40938d9b6e60405160405180910390a350565b6000600560009054906101000a900473ffffffffffffffffffffffffffffffffffffffff16905090565b60606004805461076790611cc2565b80601f016020809104026020016040519081016040528092919081815260200182805461079390611cc2565b80156107e05780601f106107b5576101008083540402835291602001916107e0565b820191906000526020600020905b8154815290600101906020018083116107c357829003601f168201915b5050505050905090565b6000806107f5610d7a565b905060006108038286610981565b905083811015610848576040517f08c379a000000000000000000000000000000000000000000000000000000000815260040161083f90611ac3565b60405180910390fd5b6108558286868403610d82565b60019250505092915050565b60008061086c610d7a565b9050610879818585610fd9565b600191505092915050565b60006040518060400160405280838152602001428152509050600660003373ffffffffffffffffffffffffffffffffffffffff1673ffffffffffffffffffffffffffffffffffffffff168152602001908152602001600020819080600181540180825580915050600190039060005260206000209060020201600090919091909150600082015181600001908051906020019061092292919061139f565b506020820151816001015550503373ffffffffffffffffffffffffffffffffffffffff167f77d8edb215ac9d1ec566743d2c005ae42f84de24e9ab2cb3ce6e3551409daa4b836040516109759190611961565b60405180910390a25050565b6000600160008473ffffffffffffffffffffffffffffffffffffffff1673ffffffffffffffffffffffffffffffffffffffff16815260200190815260200160002060008373ffffffffffffffffffffffffffffffffffffffff1673ffffffffffffffffffffffffffffffffffffffff16815260200190815260200160002054905092915050565b610a10611251565b80610a1a306105e0565b1015610a5b576040517f08c379a0000000000000000000000000000000000000000000000000000000008152600401610a5290611a03565b60405180910390fd5b610a66308383610fd9565b8173ffffffffffffffffffffffffffffffffffffffff167fe366ef68d2c0620e9e4c5074fd7ad0ce6739b65287f9c2d09b7d002da556879b82604051610aac9190611ae3565b60405180910390a25050565b610ac0611251565b600073ffffffffffffffffffffffffffffffffffffffff168173ffffffffffffffffffffffffffffffffffffffff161415610b30576040517f08c379a0000000000000000000000000000000000000000000000000000000008152600401610b27906119a3565b60405180910390fd5b610b39816112cf565b50565b6060610b4661072e565b73ffffffffffffffffffffffffffffffffffffffff163373ffffffffffffffffffffffffffffffffffffffff161480610c055750600760003373ffffffffffffffffffffffffffffffffffffffff1673ffffffffffffffffffffffffffffffffffffffff16815260200190815260200160002060003373ffffffffffffffffffffffffffffffffffffffff1673ffffffffffffffffffffffffffffffffffffffff16815260200190815260200160002060009054906101000a900460ff165b610c44576040517f08c379a0000000000000000000000000000000000000000000000000000000008152600401610c3b90611a63565b60405180910390fd5b600660003373ffffffffffffffffffffffffffffffffffffffff1673ffffffffffffffffffffffffffffffffffffffff168152602001908152602001600020805480602002602001604051908101604052809291908181526020016000905b82821015610d715783829060005260206000209060020201604051806040016040529081600082018054610cd690611cc2565b80601f0160208091040260200160405190810160405280929190818152602001828054610d0290611cc2565b8015610d4f5780601f10610d2457610100808354040283529160200191610d4f565b820191906000526020600020905b815481529060010190602001808311610d3257829003601f168201915b5050505050815260200160018201548152505081526020019060010190610ca3565b50505050905090565b600033905090565b600073ffffffffffffffffffffffffffffffffffffffff168373ffffffffffffffffffffffffffffffffffffffff161415610df2576040517f08c379a0000000000000000000000000000000000000000000000000000000008152600401610de990611aa3565b60405180910390fd5b600073ffffffffffffffffffffffffffffffffffffffff168273ffffffffffffffffffffffffffffffffffffffff161415610e62576040517f08c379a0000000000000000000000000000000000000000000000000000000008152600401610e59906119c3565b60405180910390fd5b80600160008573ffffffffffffffffffffffffffffffffffffffff1673ffffffffffffffffffffffffffffffffffffffff16815260200190815260200160002060008473ffffffffffffffffffffffffffffffffffffffff1673ffffffffffffffffffffffffffffffffffffffff168152602001908152602001600020819055508173ffffffffffffffffffffffffffffffffffffffff168373ffffffffffffffffffffffffffffffffffffffff167f8c5be1e5ebec7d5bd14f71427d1e84f3dd0314c0f7b2291e5b200ac8c7c3b92583604051610f409190611ae3565b60405180910390a3505050565b6000610f598484610981565b90507fffffffffffffffffffffffffffffffffffffffffffffffffffffffffffffffff8114610fd35781811015610fc5576040517f08c379a0000000000000000000000000000000000000000000000000000000008152600401610fbc906119e3565b60405180910390fd5b610fd28484848403610d82565b5b50505050565b600073ffffffffffffffffffffffffffffffffffffffff168373ffffffffffffffffffffffffffffffffffffffff161415611049576040517f08c379a000000000000000000000000000000000000000000000000000000000815260040161104090611a83565b60405180910390fd5b600073ffffffffffffffffffffffffffffffffffffffff168273ffffffffffffffffffffffffffffffffffffffff1614156110b9576040517f08c379a00000000000000000000000000000000000000000000000000000000081526004016110b090611983565b60405180910390fd5b6110c4838383611395565b60008060008573ffffffffffffffffffffffffffffffffffffffff1673ffffffffffffffffffffffffffffffffffffffff1681526020019081526020016000205490508181101561114a576040517f08c379a000000000000000000000000000000000000000000000000000000000815260040161114190611a23565b60405180910390fd5b8181036000808673ffffffffffffffffffffffffffffffffffffffff1673ffffffffffffffffffffffffffffffffffffffff16815260200190815260200160002081905550816000808573ffffffffffffffffffffffffffffffffffffffff1673ffffffffffffffffffffffffffffffffffffffff168152602001908152602001600020600082825401925050819055508273ffffffffffffffffffffffffffffffffffffffff168473ffffffffffffffffffffffffffffffffffffffff167fddf252ad1be2c89b69c2b068fc378daa952ba7f163c4a11628f55a4df523b3ef846040516112389190611ae3565b60405180910390a361124b84848461139a565b50505050565b611259610d7a565b73ffffffffffffffffffffffffffffffffffffffff1661127761072e565b73ffffffffffffffffffffffffffffffffffffffff16146112cd576040517f08c379a00000000000000000000000000000000000000000000000000000000081526004016112c490611a43565b60405180910390fd5b565b6000600560009054906101000a900473ffffffffffffffffffffffffffffffffffffffff16905081600560006101000a81548173ffffffffffffffffffffffffffffffffffffffff021916908373ffffffffffffffffffffffffffffffffffffffff1602179055508173ffffffffffffffffffffffffffffffffffffffff168173ffffffffffffffffffffffffffffffffffffffff167f8be0079c531659141344cd1fd0a4f28419497f9722a3daafe3b4186f6b6457e060405160405180910390a35050565b505050565b505050565b8280546113ab90611cc2565b90600052602060002090601f0160209004810192826113cd5760008555611414565b82601f106113e657805160ff1916838001178555611414565b82800160010185558215611414579182015b828111156114135782518255916020019190600101906113f8565b5b5090506114219190611425565b5090565b5b8082111561143e576000816000905550600101611426565b5090565b600061145561145084611b3e565b611b19565b90508281526020810184848401111561146d57600080fd5b611478848285611c80565b509392505050565b60008135905061148f81612090565b92915050565b600082601f8301126114a657600080fd5b81356114b6848260208601611442565b91505092915050565b6000813590506114ce816120a7565b92915050565b6000602082840312156114e657600080fd5b60006114f484828501611480565b91505092915050565b6000806040838503121561151057600080fd5b600061151e85828601611480565b925050602061152f85828601611480565b9150509250929050565b60008060006060848603121561154e57600080fd5b600061155c86828701611480565b935050602061156d86828701611480565b925050604061157e868287016114bf565b9150509250925092565b6000806040838503121561159b57600080fd5b60006115a985828601611480565b92505060206115ba858286016114bf565b9150509250929050565b6000602082840312156115d657600080fd5b600082013567ffffffffffffffff8111156115f057600080fd5b6115fc84828501611495565b91505092915050565b6000611611838361189f565b905092915050565b61162281611c2b565b82525050565b600061163382611b7f565b61163d8185611ba2565b93508360208202850161164f85611b6f565b8060005b8581101561168b578484038952815161166c8582611605565b945061167783611b95565b925060208a01995050600181019050611653565b50829750879550505050505092915050565b6116a681611c3d565b82525050565b60006116b782611b8a565b6116c18185611bb3565b93506116d1818560208601611c8f565b6116da81611db2565b840191505092915050565b60006116f082611b8a565b6116fa8185611bc4565b935061170a818560208601611c8f565b61171381611db2565b840191505092915050565b600061172b602383611bc4565b915061173682611dc3565b604082019050919050565b600061174e602683611bc4565b915061175982611e12565b604082019050919050565b6000611771602283611bc4565b915061177c82611e61565b604082019050919050565b6000611794601d83611bc4565b915061179f82611eb0565b602082019050919050565b60006117b7601f83611bc4565b91506117c282611ed9565b602082019050919050565b60006117da602683611bc4565b91506117e582611f02565b604082019050919050565b60006117fd602083611bc4565b915061180882611f51565b602082019050919050565b6000611820601383611bc4565b915061182b82611f7a565b602082019050919050565b6000611843602583611bc4565b915061184e82611fa3565b604082019050919050565b6000611866602483611bc4565b915061187182611ff2565b604082019050919050565b6000611889602583611bc4565b915061189482612041565b604082019050919050565b600060408301600083015184820360008601526118bc82826116ac565b91505060208301516118d160208601826118dc565b508091505092915050565b6118e581611c69565b82525050565b6118f481611c69565b82525050565b61190381611c73565b82525050565b600060208201905061191e6000830184611619565b92915050565b6000602082019050818103600083015261193e8184611628565b905092915050565b600060208201905061195b600083018461169d565b92915050565b6000602082019050818103600083015261197b81846116e5565b905092915050565b6000602082019050818103600083015261199c8161171e565b9050919050565b600060208201905081810360008301526119bc81611741565b9050919050565b600060208201905081810360008301526119dc81611764565b9050919050565b600060208201905081810360008301526119fc81611787565b9050919050565b60006020820190508181036000830152611a1c816117aa565b9050919050565b60006020820190508181036000830152611a3c816117cd565b9050919050565b60006020820190508181036000830152611a5c816117f0565b9050919050565b60006020820190508181036000830152611a7c81611813565b9050919050565b60006020820190508181036000830152611a9c81611836565b9050919050565b60006020820190508181036000830152611abc81611859565b9050919050565b60006020820190508181036000830152611adc8161187c565b9050919050565b6000602082019050611af860008301846118eb565b92915050565b6000602082019050611b1360008301846118fa565b92915050565b6000611b23611b34565b9050611b2f8282611cf4565b919050565b6000604051905090565b600067ffffffffffffffff821115611b5957611b58611d83565b5b611b6282611db2565b9050602081019050919050565b6000819050602082019050919050565b600081519050919050565b600081519050919050565b6000602082019050919050565b600082825260208201905092915050565b600082825260208201905092915050565b600082825260208201905092915050565b6000611be082611c69565b9150611beb83611c69565b9250827fffffffffffffffffffffffffffffffffffffffffffffffffffffffffffffffff03821115611c2057611c1f611d25565b5b828201905092915050565b6000611c3682611c49565b9050919050565b60008115159050919050565b600073ffffffffffffffffffffffffffffffffffffffff82169050919050565b6000819050919050565b600060ff82169050919050565b82818337600083830152505050565b60005b83811015611cad578082015181840152602081019050611c92565b83811115611cbc576000848401525b50505050565b60006002820490506001821680611cda57607f821691505b60208210811415611cee57611ced611d54565b5b50919050565b611cfd82611db2565b810181811067ffffffffffffffff82111715611d1c57611d1b611d83565b5b80604052505050565b7f4e487b7100000000000000000000000000000000000000000000000000000000600052601160045260246000fd5b7f4e487b7100000000000000000000000000000000000000000000000000000000600052602260045260246000fd5b7f4e487b7100000000000000000000000000000000000000000000000000000000600052604160045260246000fd5b6000601f19601f8301169050919050565b7f45524332303a207472616e7366657220746f20746865207a65726f206164647260008201527f6573730000000000000000000000000000000000000000000000000000000000602082015250565b7f4f776e61626c653a206e6577206f776e657220697320746865207a65726f206160008201527f6464726573730000000000000000000000000000000000000000000000000000602082015250565b7f45524332303a20617070726f766520746f20746865207a65726f20616464726560008201527f7373000000000000000000000000000000000000000000000000000000000000602082015250565b7f45524332303a20696e73756666696369656e7420616c6c6f77616e6365000000600082015250565b7f496e73756666696369656e742062616c616e636520666f722072657761726400600082015250565b7f45524332303a207472616e7366657220616d6f756e742065786365656473206260008201527f616c616e63650000000000000000000000000000000000000000000000000000602082015250565b7f4f776e61626c653a2063616c6c6572206973206e6f7420746865206f776e6572600082015250565b7f556e617574686f72697a65642061636365737300000000000000000000000000600082015250565b7f45524332303a207472616e736665722066726f6d20746865207a65726f20616460008201527f6472657373000000000000000000000000000000000000000000000000000000602082015250565b7f45524332303a20617070726f76652066726f6d20746865207a65726f2061646460008201527f7265737300000000000000000000000000000000000000000000000000000000602082015250565b7f45524332303a2064656372656173656420616c6c6f77616e63652062656c6f7760008201527f207a65726f000000000000000000000000000000000000000000000000000000602082015250565b61209981611c2b565b81146120a457600080fd5b50565b6120b081611c69565b81146120bb57600080fd5b5056fea26469706673582212208b703dd01acb7da7e3d723e44a7b89caddc55be09ca7ad015326c51fb4dfeff164736f6c63430008020033",
  "immutableReferences": {},
  "source": "// SPDX-License-Identifier: MIT\r\npragma solidity ^0.8.2;\r\n\r\nimport \"@openzeppelin/contracts/token/ERC20/ERC20.sol\";\r\nimport \"@openzeppelin/contracts/access/Ownable.sol\";\r\n\r\ncontract HealthcarePlatform is ERC20, Ownable {\r\n    struct HealthRecord {\r\n        string ipfsHash;\r\n        uint256 timestamp;\r\n    }\r\n\r\n    mapping(address => HealthRecord[]) private patientRecords;\r\n    mapping(address => mapping(address => bool)) private accessPermissions;\r\n\r\n    event HealthRecordStored(address indexed patient, string ipfsHash);\r\n    event AccessGranted(address indexed patient, address indexed grantee);\r\n    event AccessRevoked(address indexed patient, address indexed grantee);\r\n    event UserRewarded(address indexed user, uint256 amount);\r\n\r\n    constructor(uint256 initialSupply) ERC20(\"HealthToken\", \"HLT\") {\r\n        _mint(msg.sender, initialSupply);\r\n    }\r\n\r\n    function storeHealthRecord(string memory _ipfsHash) public {\r\n        HealthRecord memory newRecord = HealthRecord(_ipfsHash, block.timestamp);\r\n        patientRecords[msg.sender].push(newRecord);\r\n        emit HealthRecordStored(msg.sender, _ipfsHash);\r\n    }\r\n\r\n    function getHealthRecords() public view returns (HealthRecord[] memory) {\r\n        require(msg.sender == owner() || accessPermissions[msg.sender][msg.sender], \"Unauthorized access\");\r\n        return patientRecords[msg.sender];\r\n    }\r\n\r\n    function grantAccess(address _grantee) public {\r\n        accessPermissions[msg.sender][_grantee] = true;\r\n        emit AccessGranted(msg.sender, _grantee);\r\n    }\r\n\r\n    function revokeAccess(address _grantee) public {\r\n        accessPermissions[msg.sender][_grantee] = false;\r\n        emit AccessRevoked(msg.sender, _grantee);\r\n    }\r\n\r\n    function rewardUser(address _user, uint256 _amount) public onlyOwner {\r\n        require(balanceOf(address(this)) >= _amount, \"Insufficient balance for reward\");\r\n        _transfer(address(this), _user, _amount);\r\n        emit UserRewarded(_user, _amount);\r\n    }\r\n}",
  "sourcePath": "D:\\ABC\\healthcare-platform\\contracts\\healthcare.sol",
  "compiler": {
    "name": "solc",
    "version": "0.8.2+commit.661d1103.Emscripten.clang"
  },
  "schemaVersion": "3.4.16",
  "updatedAt": "2024-09-19T13:51:08.218Z",
  "networkType": "ethereum",
  "devdoc": {
    "kind": "dev",
    "methods": {
      "allowance(address,address)": {
        "details": "See {IERC20-allowance}."
      },
      "approve(address,uint256)": {
        "details": "See {IERC20-approve}. NOTE: If `amount` is the maximum `uint256`, the allowance is not updated on `transferFrom`. This is semantically equivalent to an infinite approval. Requirements: - `spender` cannot be the zero address."
      },
      "balanceOf(address)": {
        "details": "See {IERC20-balanceOf}."
      },
      "decimals()": {
        "details": "Returns the number of decimals used to get its user representation. For example, if `decimals` equals `2`, a balance of `505` tokens should be displayed to a user as `5.05` (`505 / 10 ** 2`). Tokens usually opt for a value of 18, imitating the relationship between Ether and Wei. This is the default value returned by this function, unless it's overridden. NOTE: This information is only used for _display_ purposes: it in no way affects any of the arithmetic of the contract, including {IERC20-balanceOf} and {IERC20-transfer}."
      },
      "decreaseAllowance(address,uint256)": {
        "details": "Atomically decreases the allowance granted to `spender` by the caller. This is an alternative to {approve} that can be used as a mitigation for problems described in {IERC20-approve}. Emits an {Approval} event indicating the updated allowance. Requirements: - `spender` cannot be the zero address. - `spender` must have allowance for the caller of at least `subtractedValue`."
      },
      "increaseAllowance(address,uint256)": {
        "details": "Atomically increases the allowance granted to `spender` by the caller. This is an alternative to {approve} that can be used as a mitigation for problems described in {IERC20-approve}. Emits an {Approval} event indicating the updated allowance. Requirements: - `spender` cannot be the zero address."
      },
      "name()": {
        "details": "Returns the name of the token."
      },
      "owner()": {
        "details": "Returns the address of the current owner."
      },
      "renounceOwnership()": {
        "details": "Leaves the contract without owner. It will not be possible to call `onlyOwner` functions. Can only be called by the current owner. NOTE: Renouncing ownership will leave the contract without an owner, thereby disabling any functionality that is only available to the owner."
      },
      "symbol()": {
        "details": "Returns the symbol of the token, usually a shorter version of the name."
      },
      "totalSupply()": {
        "details": "See {IERC20-totalSupply}."
      },
      "transfer(address,uint256)": {
        "details": "See {IERC20-transfer}. Requirements: - `to` cannot be the zero address. - the caller must have a balance of at least `amount`."
      },
      "transferFrom(address,address,uint256)": {
        "details": "See {IERC20-transferFrom}. Emits an {Approval} event indicating the updated allowance. This is not required by the EIP. See the note at the beginning of {ERC20}. NOTE: Does not update the allowance if the current allowance is the maximum `uint256`. Requirements: - `from` and `to` cannot be the zero address. - `from` must have a balance of at least `amount`. - the caller must have allowance for ``from``'s tokens of at least `amount`."
      },
      "transferOwnership(address)": {
        "details": "Transfers ownership of the contract to a new account (`newOwner`). Can only be called by the current owner."
      }
    },
    "version": 1
  },
  "userdoc": {
    "kind": "user",
    "methods": {},
    "version": 1
  }
}